{
  "_format": "hh-sol-artifact-1",
  "contractName": "Storage",
  "sourceName": "contracts/Storage.sol",
  "abi": [
    {
      "inputs": [],
      "stateMutability": "nonpayable",
      "type": "constructor"
    },
    {
      "anonymous": false,
      "inputs": [
        {
          "indexed": false,
          "internalType": "address",
          "name": "user",
          "type": "address"
        },
        {
          "indexed": false,
          "internalType": "string",
          "name": "cid",
          "type": "string"
        }
      ],
      "name": "FileAdded",
      "type": "event"
    },
    {
      "inputs": [],
      "name": "getFile",
      "outputs": [
        {
          "internalType": "string",
          "name": "cid",
          "type": "string"
        }
      ],
      "stateMutability": "view",
      "type": "function"
    },
    {
      "inputs": [
        {
          "internalType": "string",
          "name": "cid",
          "type": "string"
        }
      ],
      "name": "setFile",
      "outputs": [],
      "stateMutability": "nonpayable",
      "type": "function"
    }
  ],
  "bytecode": "0x608060405234801561001057600080fd5b5061079e806100206000396000f3fe608060405234801561001057600080fd5b50600436106100365760003560e01c80632fa816921461003b578063e423c15814610059575b600080fd5b610043610075565b604051610050919061025b565b60405180910390f35b610073600480360381019061006e91906103c6565b610143565b005b60606000803373ffffffffffffffffffffffffffffffffffffffff1673ffffffffffffffffffffffffffffffffffffffff16815260200190815260200160002080546100c09061043e565b80601f01602080910402602001604051908101604052809291908181526020018280546100ec9061043e565b80156101395780601f1061010e57610100808354040283529160200191610139565b820191906000526020600020905b81548152906001019060200180831161011c57829003601f168201915b5050505050905090565b806000803373ffffffffffffffffffffffffffffffffffffffff1673ffffffffffffffffffffffffffffffffffffffff168152602001908152602001600020908161018e9190610625565b507f771ad20575501c8cafc4a8793006515911d6e497fd5838018654c9b50347430c33826040516101c0929190610738565b60405180910390a150565b600081519050919050565b600082825260208201905092915050565b60005b838110156102055780820151818401526020810190506101ea565b60008484015250505050565b6000601f19601f8301169050919050565b600061022d826101cb565b61023781856101d6565b93506102478185602086016101e7565b61025081610211565b840191505092915050565b600060208201905081810360008301526102758184610222565b905092915050565b6000604051905090565b600080fd5b600080fd5b600080fd5b600080fd5b7f4e487b7100000000000000000000000000000000000000000000000000000000600052604160045260246000fd5b6102d382610211565b810181811067ffffffffffffffff821117156102f2576102f161029b565b5b80604052505050565b600061030561027d565b905061031182826102ca565b919050565b600067ffffffffffffffff8211156103315761033061029b565b5b61033a82610211565b9050602081019050919050565b82818337600083830152505050565b600061036961036484610316565b6102fb565b90508281526020810184848401111561038557610384610296565b5b610390848285610347565b509392505050565b600082601f8301126103ad576103ac610291565b5b81356103bd848260208601610356565b91505092915050565b6000602082840312156103dc576103db610287565b5b600082013567ffffffffffffffff8111156103fa576103f961028c565b5b61040684828501610398565b91505092915050565b7f4e487b7100000000000000000000000000000000000000000000000000000000600052602260045260246000fd5b6000600282049050600182168061045657607f821691505b6020821081036104695761046861040f565b5b50919050565b60008190508160005260206000209050919050565b60006020601f8301049050919050565b600082821b905092915050565b6000600883026104d17fffffffffffffffffffffffffffffffffffffffffffffffffffffffffffffffff82610494565b6104db8683610494565b95508019841693508086168417925050509392505050565b6000819050919050565b6000819050919050565b600061052261051d610518846104f3565b6104fd565b6104f3565b9050919050565b6000819050919050565b61053c83610507565b61055061054882610529565b8484546104a1565b825550505050565b600090565b610565610558565b610570818484610533565b505050565b5b818110156105945761058960008261055d565b600181019050610576565b5050565b601f8211156105d9576105aa8161046f565b6105b384610484565b810160208510156105c2578190505b6105d66105ce85610484565b830182610575565b50505b505050565b600082821c905092915050565b60006105fc600019846008026105de565b1980831691505092915050565b600061061583836105eb565b9150826002028217905092915050565b61062e826101cb565b67ffffffffffffffff8111156106475761064661029b565b5b610651825461043e565b61065c828285610598565b600060209050601f83116001811461068f576000841561067d578287015190505b6106878582610609565b8655506106ef565b601f19841661069d8661046f565b60005b828110156106c5578489015182556001820191506020850194506020810190506106a0565b868310156106e257848901516106de601f8916826105eb565b8355505b6001600288020188555050505b505050505050565b600073ffffffffffffffffffffffffffffffffffffffff82169050919050565b6000610722826106f7565b9050919050565b61073281610717565b82525050565b600060408201905061074d6000830185610729565b818103602083015261075f8184610222565b9050939250505056fea2646970667358221220b3c29fd8502f472d0aec04f1f8ecf2e19cf71c818392095a244c2ea34204782264736f6c63430008110033",
  "linkReferences": {},
  "deployedLinkReferences": {}
}